{
    "contractName": "DStorage",
    "abi": [
        {
            "inputs": [],
            "payable": false,
            "stateMutability": "nonpayable",
            "type": "constructor"
        },
        {
            "anonymous": false,
            "inputs": [
                {
                    "indexed": false,
                    "internalType": "uint256",
                    "name": "fileID",
                    "type": "uint256"
                },
                {
                    "indexed": false,
                    "internalType": "string",
                    "name": "fileHash",
                    "type": "string"
                },
                {
                    "indexed": false,
                    "internalType": "uint256",
                    "name": "fileSize",
                    "type": "uint256"
                },
                {
                    "indexed": false,
                    "internalType": "string",
                    "name": "fileType",
                    "type": "string"
                },
                {
                    "indexed": false,
                    "internalType": "string",
                    "name": "fileName",
                    "type": "string"
                },
                {
                    "indexed": false,
                    "internalType": "string",
                    "name": "fileDescription",
                    "type": "string"
                },
                {
                    "indexed": false,
                    "internalType": "uint256",
                    "name": "uploadTime",
                    "type": "uint256"
                },
                {
                    "indexed": false,
                    "internalType": "address payable",
                    "name": "uploader",
                    "type": "address"
                }
            ],
            "name": "fileUploaded",
            "type": "event"
        },
        {
            "constant": false,
            "inputs": [
                {
                    "internalType": "string",
                    "name": "_fileHash",
                    "type": "string"
                },
                {
                    "internalType": "uint256",
                    "name": "_fileSize",
                    "type": "uint256"
                },
                {
                    "internalType": "string",
                    "name": "_fileType",
                    "type": "string"
                },
                {
                    "internalType": "string",
                    "name": "_fileName",
                    "type": "string"
                },
                {
                    "internalType": "string",
                    "name": "_fileDescription",
                    "type": "string"
                }
            ],
            "name": "FileUploade",
            "outputs": [],
            "payable": false,
            "stateMutability": "nonpayable",
            "type": "function"
        },
        {
            "constant": true,
            "inputs": [],
            "name": "fileCount",
            "outputs": [
                {
                    "internalType": "uint256",
                    "name": "",
                    "type": "uint256"
                }
            ],
            "payable": false,
            "stateMutability": "view",
            "type": "function"
        },
        {
            "constant": true,
            "inputs": [
                {
                    "internalType": "uint256",
                    "name": "",
                    "type": "uint256"
                }
            ],
            "name": "files",
            "outputs": [
                {
                    "internalType": "uint256",
                    "name": "fileID",
                    "type": "uint256"
                },
                {
                    "internalType": "string",
                    "name": "fileHash",
                    "type": "string"
                },
                {
                    "internalType": "uint256",
                    "name": "fileSize",
                    "type": "uint256"
                },
                {
                    "internalType": "string",
                    "name": "fileType",
                    "type": "string"
                },
                {
                    "internalType": "string",
                    "name": "fileName",
                    "type": "string"
                },
                {
                    "internalType": "string",
                    "name": "fileDescription",
                    "type": "string"
                },
                {
                    "internalType": "uint256",
                    "name": "uploadTime",
                    "type": "uint256"
                },
                {
                    "internalType": "address payable",
                    "name": "uploader",
                    "type": "address"
                }
            ],
            "payable": false,
            "stateMutability": "view",
            "type": "function"
        },
        {
            "constant": true,
            "inputs": [],
            "name": "name",
            "outputs": [
                {
                    "internalType": "string",
                    "name": "",
                    "type": "string"
                }
            ],
            "payable": false,
            "stateMutability": "view",
            "type": "function"
        }
    ],
    "bytecode": "60c060405260086080819052674453746f7261676560c01b60a09081526100299160009190610041565b50600060015534801561003b57600080fd5b506100dc565b828054600181600116156101000203166002900490600052602060002090601f016020900481019282601f1061008257805160ff19168380011785556100af565b828001600101855582156100af579182015b828111156100af578251825591602001919060010190610094565b506100bb9291506100bf565b5090565b6100d991905b808211156100bb57600081556001016100c5565b90565b610c50806100eb6000396000f3fe608060405234801561001057600080fd5b506004361061004c5760003560e01c806306fdde031461005157806343953519146100ce578063c4494094146100e8578063f4c714b414610325575b600080fd5b61005961051a565b6040805160208082528351818301528351919283929083019185019080838360005b8381101561009357818101518382015260200161007b565b50505050905090810190601f1680156100c05780820380516001836020036101000a031916815260200191505b509250505060405180910390f35b6100d66105a8565b60408051918252519081900360200190f35b610323600480360360a08110156100fe57600080fd5b810190602081018135600160201b81111561011857600080fd5b82018360208201111561012a57600080fd5b803590602001918460018302840111600160201b8311171561014b57600080fd5b91908080601f01602080910402602001604051908101604052809392919081815260200183838082843760009201919091525092958435959094909350604081019250602001359050600160201b8111156101a557600080fd5b8201836020820111156101b757600080fd5b803590602001918460018302840111600160201b831117156101d857600080fd5b91908080601f0160208091040260200160405190810160405280939291908181526020018383808284376000920191909152509295949360208101935035915050600160201b81111561022a57600080fd5b82018360208201111561023c57600080fd5b803590602001918460018302840111600160201b8311171561025d57600080fd5b91908080601f0160208091040260200160405190810160405280939291908181526020018383808284376000920191909152509295949360208101935035915050600160201b8111156102af57600080fd5b8201836020820111156102c157600080fd5b803590602001918460018302840111600160201b831117156102e257600080fd5b91908080601f0160208091040260200160405190810160405280939291908181526020018383808284376000920191909152509295506105ae945050505050565b005b6103426004803603602081101561033b57600080fd5b503561090d565b6040518089815260200180602001888152602001806020018060200180602001878152602001866001600160a01b03166001600160a01b0316815260200185810385528c818151815260200191508051906020019080838360005b838110156103b557818101518382015260200161039d565b50505050905090810190601f1680156103e25780820380516001836020036101000a031916815260200191505b5085810384528a5181528a516020918201918c019080838360005b838110156104155781810151838201526020016103fd565b50505050905090810190601f1680156104425780820380516001836020036101000a031916815260200191505b5085810383528951815289516020918201918b019080838360005b8381101561047557818101518382015260200161045d565b50505050905090810190601f1680156104a25780820380516001836020036101000a031916815260200191505b5085810382528851815288516020918201918a019080838360005b838110156104d55781810151838201526020016104bd565b50505050905090810190601f1680156105025780820380516001836020036101000a031916815260200191505b509c5050505050505050505050505060405180910390f35b6000805460408051602060026001851615610100026000190190941693909304601f810184900484028201840190925281815292918301828280156105a05780601f10610575576101008083540402835291602001916105a0565b820191906000526020600020905b81548152906001019060200180831161058357829003601f168201915b505050505081565b60015481565b60008551116105bc57600080fd5b60008351116105ca57600080fd5b60008151116105d857600080fd5b60008251116105e657600080fd5b336105f057600080fd5b600084116105fd57600080fd5b600180548101808255604080516101008101825282815260208082018a81528284018a9052606083018990526080830188905260a083018790524260c08401523360e08401526000948552600282529290932081518155915180519194929361066b93850192910190610b80565b506040820151600282015560608201518051610691916003840191602090910190610b80565b50608082015180516106ad916004840191602090910190610b80565b5060a082015180516106c9916005840191602090910190610b80565b5060c0820151816006015560e08201518160070160006101000a8154816001600160a01b0302191690836001600160a01b031602179055509050507f3563bedf857c5b4236b616a4193fedc9bfea9b457e044699947db4710cb18bac600154868686868642336040518089815260200180602001888152602001806020018060200180602001878152602001866001600160a01b03166001600160a01b0316815260200185810385528c818151815260200191508051906020019080838360005b838110156107a257818101518382015260200161078a565b50505050905090810190601f1680156107cf5780820380516001836020036101000a031916815260200191505b5085810384528a5181528a516020918201918c019080838360005b838110156108025781810151838201526020016107ea565b50505050905090810190601f16801561082f5780820380516001836020036101000a031916815260200191505b5085810383528951815289516020918201918b019080838360005b8381101561086257818101518382015260200161084a565b50505050905090810190601f16801561088f5780820380516001836020036101000a031916815260200191505b5085810382528851815288516020918201918a019080838360005b838110156108c25781810151838201526020016108aa565b50505050905090810190601f1680156108ef5780820380516001836020036101000a031916815260200191505b509c5050505050505050505050505060405180910390a15050505050565b60026020818152600092835260409283902080546001808301805487519281161561010002600019011695909504601f81018590048502820185019096528581529094919390929091908301828280156109a85780601f1061097d576101008083540402835291602001916109a8565b820191906000526020600020905b81548152906001019060200180831161098b57829003601f168201915b505050506002838101546003850180546040805160206001841615610100026000190190931695909504601f810183900483028601830190915280855295969295929450909190830182828015610a405780601f10610a1557610100808354040283529160200191610a40565b820191906000526020600020905b815481529060010190602001808311610a2357829003601f168201915b5050505060048301805460408051602060026001851615610100026000190190941693909304601f8101849004840282018401909252818152949594935090830182828015610ad05780601f10610aa557610100808354040283529160200191610ad0565b820191906000526020600020905b815481529060010190602001808311610ab357829003601f168201915b5050505060058301805460408051602060026001851615610100026000190190941693909304601f8101849004840282018401909252818152949594935090830182828015610b605780601f10610b3557610100808354040283529160200191610b60565b820191906000526020600020905b815481529060010190602001808311610b4357829003601f168201915b5050505060068301546007909301549192916001600160a01b0316905088565b828054600181600116156101000203166002900490600052602060002090601f016020900481019282601f10610bc157805160ff1916838001178555610bee565b82800160010185558215610bee579182015b82811115610bee578251825591602001919060010190610bd3565b50610bfa929150610bfe565b5090565b610c1891905b80821115610bfa5760008155600101610c04565b9056fea265627a7a723158208fd07f327b6ed12197479c50cd439f0ec3a4505880d163c0d76c3916a9d8593464736f6c63430005100032",
    "sourcePath": "c:/Users/Waqas Wahid/Documents/GitHub/dstorage/src/contracts/DStorage.sol",
    "compiler": {
        "name": "solc",
        "version": "0.5.16+commit.9c3226ce"
    },
    "functionHashes": {
        "FileUploade(string,uint256,string,string,string)": "c4494094",
        "fileCount()": "43953519",
        "files(uint256)": "f4c714b4",
        "name()": "06fdde03"
    },
    "gasEstimates": {
        "creation": {
            "codeDepositCost": "630400",
            "executionCost": "infinite",
            "totalCost": "infinite"
        },
        "external": {
            "FileUploade(string,uint256,string,string,string)": "infinite",
            "fileCount()": "998",
            "files(uint256)": "infinite",
            "name()": "infinite"
        }
    }
}